:020000000828CE
:020008007E2850
:100010008316031789018B018101F03086008C0162
:100020008D01031783128F01831203178901831631
:100030000313003095009601831203139701831672
:10004000031703308800831603139D0100308700D7
:100050008312031394019801900197019D01870178
:10006000860183160317880183120317880187010D
:10007000831603138E01033085008312031394014A
:100080009F01003085006430A9002814B101A4014B
:10009000B001A301A601B201B3018C01910192014B
:1000A000831602308C00D0309200C0308B00831257
:1000B000273092002B29031783128C000317831615
:1000C0008C130C158B138B1B622855308D00AA30B6
:1000D0008D008C148C186A280C11031383120D12D6
:1000E000A128031783168C130C14000000000317BB
:1000F00083120C08031383128700A128A1000308B0
:10010000A000031383128C1CA12828188E2805191F
:1001100000293218DD283118B828A12803138312CA
:100120000518A8288518CF28A90BA12800000718B2
:100130009C28533087009E28203087006430A90017
:10014000A128031383128C102008830021080900C2
:10015000031383123230A200231426102810311406
:100160003210301003138312A50152308700A128EA
:10017000031383122618EF28301CA1280000261430
:1001800030105530A2000D120313831225080317F7
:1001900083128D0003138312240887005B28031346
:1001A00083126430B3002810321403138312A501A4
:1001B0002508031783128D00712803138312B30BD4
:1001C000A12803138312A50A0A3025020318002967
:1001D0006430B3002508031783128D0071280313C0
:1001E0008312A20BA128000023142610523087008E
:1001F00003138312A50A0A30250203180029A12837
:10020000281403138312A5016430A90031103010A3
:1002100053308700A12830305A2931305A293230E2
:100220005A2933305A2934305A2935305A29363030
:100230005A2937305A2938305A2939305A29413009
:100240005A2942305A2943305A2944305A294530D4
:100250005A2946305A2903138312231C2B2983124F
:10026000031308308600861B2929061B2729861AB6
:100270002529061A232904308600861B2129061BFE
:100280001F29861A1D29061A1B2902308600861B83
:100290001929061B1729861A1529061A1329013050
:1002A0008600861B1129061B0F29861A0D29061A9E
:1002B0000B292B29A400231030142B29F03006051C
:0602C000031D5E29080089
:04400E00F120FF3F5F
:00000001FF
